{
  "contractName": "EscrowWallet",
  "abi": [
    {
      "constant": true,
      "inputs": [],
      "name": "totalShares",
      "outputs": [
        {
          "name": "",
          "type": "uint256"
        }
      ],
      "payable": false,
      "stateMutability": "view",
      "type": "function"
    },
    {
      "constant": false,
      "inputs": [],
      "name": "unpause",
      "outputs": [],
      "payable": false,
      "stateMutability": "nonpayable",
      "type": "function"
    },
    {
      "constant": true,
      "inputs": [],
      "name": "paused",
      "outputs": [
        {
          "name": "",
          "type": "bool"
        }
      ],
      "payable": false,
      "stateMutability": "view",
      "type": "function"
    },
    {
      "constant": true,
      "inputs": [
        {
          "name": "",
          "type": "uint256"
        }
      ],
      "name": "payees",
      "outputs": [
        {
          "name": "",
          "type": "address"
        }
      ],
      "payable": false,
      "stateMutability": "view",
      "type": "function"
    },
    {
      "constant": false,
      "inputs": [],
      "name": "renounceOwnership",
      "outputs": [],
      "payable": false,
      "stateMutability": "nonpayable",
      "type": "function"
    },
    {
      "constant": false,
      "inputs": [],
      "name": "pause",
      "outputs": [],
      "payable": false,
      "stateMutability": "nonpayable",
      "type": "function"
    },
    {
      "constant": true,
      "inputs": [],
      "name": "owner",
      "outputs": [
        {
          "name": "",
          "type": "address"
        }
      ],
      "payable": false,
      "stateMutability": "view",
      "type": "function"
    },
    {
      "constant": true,
      "inputs": [
        {
          "name": "",
          "type": "address"
        }
      ],
      "name": "released",
      "outputs": [
        {
          "name": "",
          "type": "uint256"
        }
      ],
      "payable": false,
      "stateMutability": "view",
      "type": "function"
    },
    {
      "constant": true,
      "inputs": [
        {
          "name": "",
          "type": "address"
        }
      ],
      "name": "shares",
      "outputs": [
        {
          "name": "",
          "type": "uint256"
        }
      ],
      "payable": false,
      "stateMutability": "view",
      "type": "function"
    },
    {
      "constant": true,
      "inputs": [],
      "name": "totalReleased",
      "outputs": [
        {
          "name": "",
          "type": "uint256"
        }
      ],
      "payable": false,
      "stateMutability": "view",
      "type": "function"
    },
    {
      "constant": false,
      "inputs": [
        {
          "name": "_newOwner",
          "type": "address"
        }
      ],
      "name": "transferOwnership",
      "outputs": [],
      "payable": false,
      "stateMutability": "nonpayable",
      "type": "function"
    },
    {
      "inputs": [
        {
          "name": "_payees",
          "type": "address[]"
        },
        {
          "name": "_shares",
          "type": "uint256[]"
        }
      ],
      "payable": false,
      "stateMutability": "nonpayable",
      "type": "constructor"
    },
    {
      "payable": true,
      "stateMutability": "payable",
      "type": "fallback"
    },
    {
      "anonymous": false,
      "inputs": [
        {
          "indexed": true,
          "name": "payee",
          "type": "address"
        },
        {
          "indexed": false,
          "name": "amount",
          "type": "uint256"
        }
      ],
      "name": "Claim",
      "type": "event"
    },
    {
      "anonymous": false,
      "inputs": [],
      "name": "Pause",
      "type": "event"
    },
    {
      "anonymous": false,
      "inputs": [],
      "name": "Unpause",
      "type": "event"
    },
    {
      "anonymous": false,
      "inputs": [
        {
          "indexed": true,
          "name": "previousOwner",
          "type": "address"
        }
      ],
      "name": "OwnershipRenounced",
      "type": "event"
    },
    {
      "anonymous": false,
      "inputs": [
        {
          "indexed": true,
          "name": "previousOwner",
          "type": "address"
        },
        {
          "indexed": true,
          "name": "newOwner",
          "type": "address"
        }
      ],
      "name": "OwnershipTransferred",
      "type": "event"
    },
    {
      "constant": false,
      "inputs": [],
      "name": "claim",
      "outputs": [],
      "payable": false,
      "stateMutability": "nonpayable",
      "type": "function"
    }
  ],
  "bytecode": "0x60806040526000805560006001556000600560146101000a81548160ff02191690831515021790555034801561003457600080fd5b50604051610e44380380610e448339810180604052810190808051820192919060200180518201929190505050818160008151835114151561007557600080fd5b600090505b82518110156100d7576100ca838281518110151561009457fe5b9060200190602002015183838151811015156100ac57fe5b90602001906020020151610122640100000000026401000000009004565b808060010191505061007a565b50505033600560006101000a81548173ffffffffffffffffffffffffffffffffffffffff021916908373ffffffffffffffffffffffffffffffffffffffff16021790555050506102ad565b600073ffffffffffffffffffffffffffffffffffffffff168273ffffffffffffffffffffffffffffffffffffffff161415151561015e57600080fd5b60008111151561016d57600080fd5b6000600260008473ffffffffffffffffffffffffffffffffffffffff1673ffffffffffffffffffffffffffffffffffffffff168152602001908152602001600020541415156101bb57600080fd5b60048290806001815401808255809150509060018203906000526020600020016000909192909190916101000a81548173ffffffffffffffffffffffffffffffffffffffff021916908373ffffffffffffffffffffffffffffffffffffffff1602179055505080600260008473ffffffffffffffffffffffffffffffffffffffff1673ffffffffffffffffffffffffffffffffffffffff168152602001908152602001600020819055506102878160005461029164010000000002610ad9179091906401000000009004565b6000819055505050565b600081830190508281101515156102a457fe5b80905092915050565b610b88806102bc6000396000f3006080604052600436106100ba576000357c0100000000000000000000000000000000000000000000000000000000900463ffffffff1680633a98ef39146100bc5780633f4ba83a146100e75780634e71d92d146100fe5780635c975abb1461011557806363037b0c14610144578063715018a6146101b15780638456cb59146101c85780638da5cb5b146101df5780639852595c14610236578063ce7c2ac21461028d578063e33b7de3146102e4578063f2fde38b1461030f575b005b3480156100c857600080fd5b506100d1610352565b6040518082815260200191505060405180910390f35b3480156100f357600080fd5b506100fc610358565b005b34801561010a57600080fd5b50610113610418565b005b34801561012157600080fd5b5061012a610493565b604051808215151515815260200191505060405180910390f35b34801561015057600080fd5b5061016f600480360381019080803590602001909291905050506104a6565b604051808273ffffffffffffffffffffffffffffffffffffffff1673ffffffffffffffffffffffffffffffffffffffff16815260200191505060405180910390f35b3480156101bd57600080fd5b506101c66104e4565b005b3480156101d457600080fd5b506101dd6105e9565b005b3480156101eb57600080fd5b506101f46106aa565b604051808273ffffffffffffffffffffffffffffffffffffffff1673ffffffffffffffffffffffffffffffffffffffff16815260200191505060405180910390f35b34801561024257600080fd5b50610277600480360381019080803573ffffffffffffffffffffffffffffffffffffffff1690602001909291905050506106d0565b6040518082815260200191505060405180910390f35b34801561029957600080fd5b506102ce600480360381019080803573ffffffffffffffffffffffffffffffffffffffff1690602001909291905050506106e8565b6040518082815260200191505060405180910390f35b3480156102f057600080fd5b506102f9610700565b6040518082815260200191505060405180910390f35b34801561031b57600080fd5b50610350600480360381019080803573ffffffffffffffffffffffffffffffffffffffff169060200190929190505050610706565b005b60005481565b600560009054906101000a900473ffffffffffffffffffffffffffffffffffffffff1673ffffffffffffffffffffffffffffffffffffffff163373ffffffffffffffffffffffffffffffffffffffff161415156103b457600080fd5b600560149054906101000a900460ff1615156103cf57600080fd5b6000600560146101000a81548160ff0219169083151502179055507f7805862f689e2f13df9f062ff482ad3ad112aca9e0847911ed832e158c525b3360405160405180910390a1565b6000600560149054906101000a900460ff1615151561043657600080fd5b6001905061044261076e565b3373ffffffffffffffffffffffffffffffffffffffff167f47cee97cb7acd717b3c0aa1435d004cd5b3c8c57d70dbceb4e4458bbd60e39d4826040518082815260200191505060405180910390a250565b600560149054906101000a900460ff1681565b6004818154811015156104b557fe5b906000526020600020016000915054906101000a900473ffffffffffffffffffffffffffffffffffffffff1681565b600560009054906101000a900473ffffffffffffffffffffffffffffffffffffffff1673ffffffffffffffffffffffffffffffffffffffff163373ffffffffffffffffffffffffffffffffffffffff1614151561054057600080fd5b600560009054906101000a900473ffffffffffffffffffffffffffffffffffffffff1673ffffffffffffffffffffffffffffffffffffffff167ff8df31144d9c2f0f6b59d69b8b98abd5459d07f2742c4df920b25aae33c6482060405160405180910390a26000600560006101000a81548173ffffffffffffffffffffffffffffffffffffffff021916908373ffffffffffffffffffffffffffffffffffffffff160217905550565b600560009054906101000a900473ffffffffffffffffffffffffffffffffffffffff1673ffffffffffffffffffffffffffffffffffffffff163373ffffffffffffffffffffffffffffffffffffffff1614151561064557600080fd5b600560149054906101000a900460ff1615151561066157600080fd5b6001600560146101000a81548160ff0219169083151502179055507f6985a02210a168e66602d3235cb6db0e70f92b3ba4d376a33c0f3d9434bff62560405160405180910390a1565b600560009054906101000a900473ffffffffffffffffffffffffffffffffffffffff1681565b60036020528060005260406000206000915090505481565b60026020528060005260406000206000915090505481565b60015481565b600560009054906101000a900473ffffffffffffffffffffffffffffffffffffffff1673ffffffffffffffffffffffffffffffffffffffff163373ffffffffffffffffffffffffffffffffffffffff1614151561076257600080fd5b61076b816109dd565b50565b60008060003392506000600260008573ffffffffffffffffffffffffffffffffffffffff1673ffffffffffffffffffffffffffffffffffffffff168152602001908152602001600020541115156107c457600080fd5b6107f06001543073ffffffffffffffffffffffffffffffffffffffff1631610ad990919063ffffffff16565b91506108a9600360008573ffffffffffffffffffffffffffffffffffffffff1673ffffffffffffffffffffffffffffffffffffffff1681526020019081526020016000205461089b60005461088d600260008973ffffffffffffffffffffffffffffffffffffffff1673ffffffffffffffffffffffffffffffffffffffff1681526020019081526020016000205487610af590919063ffffffff16565b610b2d90919063ffffffff16565b610b4390919063ffffffff16565b9050600081141515156108bb57600080fd5b803073ffffffffffffffffffffffffffffffffffffffff1631101515156108e157600080fd5b61093381600360008673ffffffffffffffffffffffffffffffffffffffff1673ffffffffffffffffffffffffffffffffffffffff16815260200190815260200160002054610ad990919063ffffffff16565b600360008573ffffffffffffffffffffffffffffffffffffffff1673ffffffffffffffffffffffffffffffffffffffff1681526020019081526020016000208190555061098b81600154610ad990919063ffffffff16565b6001819055508273ffffffffffffffffffffffffffffffffffffffff166108fc829081150290604051600060405180830381858888f193505050501580156109d7573d6000803e3d6000fd5b50505050565b600073ffffffffffffffffffffffffffffffffffffffff168173ffffffffffffffffffffffffffffffffffffffff1614151515610a1957600080fd5b8073ffffffffffffffffffffffffffffffffffffffff16600560009054906101000a900473ffffffffffffffffffffffffffffffffffffffff1673ffffffffffffffffffffffffffffffffffffffff167f8be0079c531659141344cd1fd0a4f28419497f9722a3daafe3b4186f6b6457e060405160405180910390a380600560006101000a81548173ffffffffffffffffffffffffffffffffffffffff021916908373ffffffffffffffffffffffffffffffffffffffff16021790555050565b60008183019050828110151515610aec57fe5b80905092915050565b600080831415610b085760009050610b27565b8183029050818382811515610b1957fe5b04141515610b2357fe5b8090505b92915050565b60008183811515610b3a57fe5b04905092915050565b6000828211151515610b5157fe5b8183039050929150505600a165627a7a72305820468abd764b2f6f3895b9a53346ce92a5a1ee9489b1524b9533945538a0116c8e0029",
  "source": "// extend from the splitter and pausal contracts, ownable\npragma solidity ^0.4.24;\n\nimport \"openzeppelin-solidity/contracts/payment/SplitPayment.sol\";\nimport \"openzeppelin-solidity/contracts/ownership/Ownable.sol\";\nimport \"openzeppelin-solidity/contracts/lifecycle/Pausable.sol\";\n\ncontract EscrowWallet is SplitPayment, Ownable, Pausable {\n\n  event Claim(address indexed payee, uint256 amount);\n\n  constructor(\n    address[] _payees, \n    uint256[] _shares\n  ) SplitPayment(_payees, _shares) \n  public\n  {}\n\n  function claim() public whenNotPaused {\n    // uint256 amount = totalReceived.mul(\n    //   shares[payee]).div(\n    //     totalShares).sub(\n    //       released[payee]\n    // );\n    uint256 amount = 1;\n    SplitPayment.claim();\n    \n    emit Claim(msg.sender, amount);\n  }\n}\n\n",
  "sourcePath": "/Users/alex/dev/tectra/generic-crowd-sale/contracts/EscrowWallet.sol",
  "compiler": {
    "name": "solc",
    "version": "0.4.24+commit.e67f0147.Emscripten.clang"
  },
  "schemaVersion": "3.0.0-beta.0",
  "updatedAt": "2018-08-30T18:53:04.010Z"
}